{
  "address": "0x24353bF235C9fF676e4B9d62e0ED9044494354E0",
  "abi": [
    {
      "inputs": [],
      "stateMutability": "nonpayable",
      "type": "constructor"
    },
    {
      "inputs": [],
      "name": "contract_Owner",
      "type": "error"
    },
    {
      "inputs": [],
      "name": "insufficientFunds",
      "type": "error"
    },
    {
      "inputs": [],
      "name": "noMoreTokenIds",
      "type": "error"
    },
    {
      "anonymous": false,
      "inputs": [
        {
          "indexed": true,
          "internalType": "address",
          "name": "account",
          "type": "address"
        },
        {
          "indexed": true,
          "internalType": "address",
          "name": "operator",
          "type": "address"
        },
        {
          "indexed": false,
          "internalType": "bool",
          "name": "approved",
          "type": "bool"
        }
      ],
      "name": "ApprovalForAll",
      "type": "event"
    },
    {
      "anonymous": false,
      "inputs": [
        {
          "indexed": true,
          "internalType": "address",
          "name": "operator",
          "type": "address"
        },
        {
          "indexed": true,
          "internalType": "address",
          "name": "from",
          "type": "address"
        },
        {
          "indexed": true,
          "internalType": "address",
          "name": "to",
          "type": "address"
        },
        {
          "indexed": false,
          "internalType": "uint256[]",
          "name": "ids",
          "type": "uint256[]"
        },
        {
          "indexed": false,
          "internalType": "uint256[]",
          "name": "values",
          "type": "uint256[]"
        }
      ],
      "name": "TransferBatch",
      "type": "event"
    },
    {
      "anonymous": false,
      "inputs": [
        {
          "indexed": true,
          "internalType": "address",
          "name": "operator",
          "type": "address"
        },
        {
          "indexed": true,
          "internalType": "address",
          "name": "from",
          "type": "address"
        },
        {
          "indexed": true,
          "internalType": "address",
          "name": "to",
          "type": "address"
        },
        {
          "indexed": false,
          "internalType": "uint256",
          "name": "id",
          "type": "uint256"
        },
        {
          "indexed": false,
          "internalType": "uint256",
          "name": "value",
          "type": "uint256"
        }
      ],
      "name": "TransferSingle",
      "type": "event"
    },
    {
      "anonymous": false,
      "inputs": [
        {
          "indexed": false,
          "internalType": "string",
          "name": "value",
          "type": "string"
        },
        {
          "indexed": true,
          "internalType": "uint256",
          "name": "id",
          "type": "uint256"
        }
      ],
      "name": "URI",
      "type": "event"
    },
    {
      "stateMutability": "payable",
      "type": "fallback"
    },
    {
      "inputs": [],
      "name": "_baseURI",
      "outputs": [
        {
          "internalType": "string",
          "name": "",
          "type": "string"
        }
      ],
      "stateMutability": "pure",
      "type": "function"
    },
    {
      "inputs": [
        {
          "internalType": "address",
          "name": "account",
          "type": "address"
        },
        {
          "internalType": "uint256",
          "name": "id",
          "type": "uint256"
        }
      ],
      "name": "balanceOf",
      "outputs": [
        {
          "internalType": "uint256",
          "name": "",
          "type": "uint256"
        }
      ],
      "stateMutability": "view",
      "type": "function"
    },
    {
      "inputs": [
        {
          "internalType": "address[]",
          "name": "accounts",
          "type": "address[]"
        },
        {
          "internalType": "uint256[]",
          "name": "ids",
          "type": "uint256[]"
        }
      ],
      "name": "balanceOfBatch",
      "outputs": [
        {
          "internalType": "uint256[]",
          "name": "",
          "type": "uint256[]"
        }
      ],
      "stateMutability": "view",
      "type": "function"
    },
    {
      "inputs": [],
      "name": "getBalance",
      "outputs": [
        {
          "internalType": "uint256",
          "name": "",
          "type": "uint256"
        }
      ],
      "stateMutability": "view",
      "type": "function"
    },
    {
      "inputs": [],
      "name": "getBalanceOfSender",
      "outputs": [
        {
          "internalType": "uint256",
          "name": "",
          "type": "uint256"
        }
      ],
      "stateMutability": "view",
      "type": "function"
    },
    {
      "inputs": [],
      "name": "getBalanceOfTokens",
      "outputs": [
        {
          "internalType": "uint256",
          "name": "",
          "type": "uint256"
        }
      ],
      "stateMutability": "view",
      "type": "function"
    },
    {
      "inputs": [],
      "name": "getTokenID",
      "outputs": [
        {
          "internalType": "uint256",
          "name": "",
          "type": "uint256"
        }
      ],
      "stateMutability": "view",
      "type": "function"
    },
    {
      "inputs": [
        {
          "internalType": "address",
          "name": "account",
          "type": "address"
        },
        {
          "internalType": "address",
          "name": "operator",
          "type": "address"
        }
      ],
      "name": "isApprovedForAll",
      "outputs": [
        {
          "internalType": "bool",
          "name": "",
          "type": "bool"
        }
      ],
      "stateMutability": "view",
      "type": "function"
    },
    {
      "inputs": [],
      "name": "maxTokenIDS",
      "outputs": [
        {
          "internalType": "uint256",
          "name": "",
          "type": "uint256"
        }
      ],
      "stateMutability": "pure",
      "type": "function"
    },
    {
      "inputs": [],
      "name": "metaOrcs",
      "outputs": [
        {
          "internalType": "uint256",
          "name": "",
          "type": "uint256"
        }
      ],
      "stateMutability": "view",
      "type": "function"
    },
    {
      "inputs": [],
      "name": "mint",
      "outputs": [],
      "stateMutability": "payable",
      "type": "function"
    },
    {
      "inputs": [
        {
          "internalType": "address",
          "name": "from",
          "type": "address"
        },
        {
          "internalType": "address",
          "name": "to",
          "type": "address"
        },
        {
          "internalType": "uint256[]",
          "name": "ids",
          "type": "uint256[]"
        },
        {
          "internalType": "uint256[]",
          "name": "amounts",
          "type": "uint256[]"
        },
        {
          "internalType": "bytes",
          "name": "data",
          "type": "bytes"
        }
      ],
      "name": "safeBatchTransferFrom",
      "outputs": [],
      "stateMutability": "nonpayable",
      "type": "function"
    },
    {
      "inputs": [
        {
          "internalType": "address",
          "name": "from",
          "type": "address"
        },
        {
          "internalType": "address",
          "name": "to",
          "type": "address"
        },
        {
          "internalType": "uint256",
          "name": "id",
          "type": "uint256"
        },
        {
          "internalType": "uint256",
          "name": "amount",
          "type": "uint256"
        },
        {
          "internalType": "bytes",
          "name": "data",
          "type": "bytes"
        }
      ],
      "name": "safeTransferFrom",
      "outputs": [],
      "stateMutability": "nonpayable",
      "type": "function"
    },
    {
      "inputs": [
        {
          "internalType": "address",
          "name": "operator",
          "type": "address"
        },
        {
          "internalType": "bool",
          "name": "approved",
          "type": "bool"
        }
      ],
      "name": "setApprovalForAll",
      "outputs": [],
      "stateMutability": "nonpayable",
      "type": "function"
    },
    {
      "inputs": [
        {
          "internalType": "bytes4",
          "name": "interfaceId",
          "type": "bytes4"
        }
      ],
      "name": "supportsInterface",
      "outputs": [
        {
          "internalType": "bool",
          "name": "",
          "type": "bool"
        }
      ],
      "stateMutability": "view",
      "type": "function"
    },
    {
      "inputs": [],
      "name": "tokenIds",
      "outputs": [
        {
          "internalType": "uint256",
          "name": "",
          "type": "uint256"
        }
      ],
      "stateMutability": "view",
      "type": "function"
    },
    {
      "inputs": [
        {
          "internalType": "uint256",
          "name": "",
          "type": "uint256"
        }
      ],
      "name": "uri",
      "outputs": [
        {
          "internalType": "string",
          "name": "",
          "type": "string"
        }
      ],
      "stateMutability": "view",
      "type": "function"
    },
    {
      "inputs": [],
      "name": "withdraw",
      "outputs": [],
      "stateMutability": "nonpayable",
      "type": "function"
    },
    {
      "stateMutability": "payable",
      "type": "receive"
    }
  ],
  "transactionHash": "0x70d47695dbfeb0f88c34fb271fbcabf635695429f09ba0fe8a0867428958355e",
  "args": [],
  "numDeployments": 1,
  "solcInputHash": "e9bf33692c1c2fb738fe88dc3454e363",
  "bytecode": "0x60e0604052612710608090815250662386f26fc1000060a09081525060006003553480156200002d57600080fd5b5060405180608001604052806043815260200162002ff76043913962000059816200009760201b60201c565b503373ffffffffffffffffffffffffffffffffffffffff1660c08173ffffffffffffffffffffffffffffffffffffffff1660601b81525050620001c8565b8060029080519060200190620000af929190620000b3565b5050565b828054620000c19062000192565b90600052602060002090601f016020900481019282620000e5576000855562000131565b82601f106200010057805160ff191683800117855562000131565b8280016001018555821562000131579182015b828111156200013057825182559160200191906001019062000113565b5b50905062000140919062000144565b5090565b5b808211156200015f57600081600090555060010162000145565b5090565b7f4e487b7100000000000000000000000000000000000000000000000000000000600052602260045260246000fd5b60006002820490506001821680620001ab57607f821691505b60208210811415620001c257620001c162000163565b5b50919050565b60805160a05160c05160601c612df56200020260003960006108bf015260006107220152600081816106c70152610b180152612df56000f3fe60806040526004361061010c5760003560e01c80636ba367a311610095578063be6d91e611610064578063be6d91e614610353578063cc65c31c1461037e578063e0a9f900146103a9578063e985e9c5146103d4578063f242432a1461041157610113565b80636ba367a3146102a9578063714cff56146102d4578063743976a0146102ff578063a22cb4651461032a57610113565b80631249c58b116100dc5780631249c58b146101f75780632eb2c2d614610201578063321e0f7f1461022a5780633ccfd60b146102555780634e1273f41461026c57610113565b8062fdd58e1461011557806301ffc9a7146101525780630e89341c1461018f57806312065fe0146101cc57610113565b3661011357005b005b34801561012157600080fd5b5061013c60048036038101906101379190611af4565b61043a565b6040516101499190611b43565b60405180910390f35b34801561015e57600080fd5b5061017960048036038101906101749190611bb6565b610503565b6040516101869190611bfe565b60405180910390f35b34801561019b57600080fd5b506101b660048036038101906101b19190611c19565b6105e5565b6040516101c39190611cdf565b60405180910390f35b3480156101d857600080fd5b506101e1610679565b6040516101ee9190611b43565b60405180910390f35b6101ff610681565b005b34801561020d57600080fd5b5061022860048036038101906102239190611efe565b6107b0565b005b34801561023657600080fd5b5061023f610851565b60405161024c9190611b43565b60405180910390f35b34801561026157600080fd5b5061026a610856565b005b34801561027857600080fd5b50610293600480360381019061028e9190612090565b610996565b6040516102a091906121c6565b60405180910390f35b3480156102b557600080fd5b506102be610aaf565b6040516102cb9190611b43565b60405180910390f35b3480156102e057600080fd5b506102e9610ab9565b6040516102f69190611b43565b60405180910390f35b34801561030b57600080fd5b50610314610abf565b6040516103219190611cdf565b60405180910390f35b34801561033657600080fd5b50610351600480360381019061034c9190612214565b610adf565b005b34801561035f57600080fd5b50610368610af5565b6040516103759190611b43565b60405180910390f35b34801561038a57600080fd5b50610393610b14565b6040516103a09190611b43565b60405180910390f35b3480156103b557600080fd5b506103be610b3c565b6040516103cb9190611b43565b60405180910390f35b3480156103e057600080fd5b506103fb60048036038101906103f69190612254565b610b4e565b6040516104089190611bfe565b60405180910390f35b34801561041d57600080fd5b5061043860048036038101906104339190612294565b610be2565b005b60008073ffffffffffffffffffffffffffffffffffffffff168373ffffffffffffffffffffffffffffffffffffffff1614156104ab576040517f08c379a00000000000000000000000000000000000000000000000000000000081526004016104a29061239d565b60405180910390fd5b60008083815260200190815260200160002060008473ffffffffffffffffffffffffffffffffffffffff1673ffffffffffffffffffffffffffffffffffffffff16815260200190815260200160002054905092915050565b60007fd9b67a26000000000000000000000000000000000000000000000000000000007bffffffffffffffffffffffffffffffffffffffffffffffffffffffff1916827bffffffffffffffffffffffffffffffffffffffffffffffffffffffff191614806105ce57507f0e89341c000000000000000000000000000000000000000000000000000000007bffffffffffffffffffffffffffffffffffffffffffffffffffffffff1916827bffffffffffffffffffffffffffffffffffffffffffffffffffffffff1916145b806105de57506105dd82610c83565b5b9050919050565b6060600280546105f4906123ec565b80601f0160208091040260200160405190810160405280929190818152602001828054610620906123ec565b801561066d5780601f106106425761010080835404028352916020019161066d565b820191906000526020600020905b81548152906001019060200180831161065057829003601f168201915b50505050509050919050565b600047905090565b600161068e33600061043a565b106106c5576040517fa38ee5b500000000000000000000000000000000000000000000000000000000815260040160405180910390fd5b7f000000000000000000000000000000000000000000000000000000000000000060035410610720576040517fa38ee5b500000000000000000000000000000000000000000000000000000000815260040160405180910390fd5b7f00000000000000000000000000000000000000000000000000000000000000003411610779576040517f952d78c400000000000000000000000000000000000000000000000000000000815260040160405180910390fd5b610796336000600160405180602001604052806000815250610ced565b600360008154809291906107a99061244d565b9190505550565b6107b8610e9e565b73ffffffffffffffffffffffffffffffffffffffff168573ffffffffffffffffffffffffffffffffffffffff1614806107fe57506107fd856107f8610e9e565b610b4e565b5b61083d576040517f08c379a000000000000000000000000000000000000000000000000000000000815260040161083490612508565b60405180910390fd5b61084a8585858585610ea6565b5050505050565b600081565b3373ffffffffffffffffffffffffffffffffffffffff163373ffffffffffffffffffffffffffffffffffffffff16146108bb576040517fa0fa0dab00000000000000000000000000000000000000000000000000000000815260040160405180910390fd5b60007f00000000000000000000000000000000000000000000000000000000000000009050600047905060008273ffffffffffffffffffffffffffffffffffffffff168260405161090b90612559565b60006040518083038185875af1925050503d8060008114610948576040519150601f19603f3d011682016040523d82523d6000602084013e61094d565b606091505b5050905080610991576040517f08c379a0000000000000000000000000000000000000000000000000000000008152600401610988906125ba565b60405180910390fd5b505050565b606081518351146109dc576040517f08c379a00000000000000000000000000000000000000000000000000000000081526004016109d39061264c565b60405180910390fd5b6000835167ffffffffffffffff8111156109f9576109f8611d06565b5b604051908082528060200260200182016040528015610a275781602001602082028036833780820191505090505b50905060005b8451811015610aa457610a74858281518110610a4c57610a4b61266c565b5b6020026020010151858381518110610a6757610a6661266c565b5b602002602001015161043a565b828281518110610a8757610a8661266c565b5b60200260200101818152505080610a9d9061244d565b9050610a2d565b508091505092915050565b6000600354905090565b60035481565b6060604051806080016040528060438152602001612d7d60439139905090565b610af1610aea610e9e565b83836111c8565b5050565b60003373ffffffffffffffffffffffffffffffffffffffff1631905090565b60007f0000000000000000000000000000000000000000000000000000000000000000905090565b6000610b4933600061043a565b905090565b6000600160008473ffffffffffffffffffffffffffffffffffffffff1673ffffffffffffffffffffffffffffffffffffffff16815260200190815260200160002060008373ffffffffffffffffffffffffffffffffffffffff1673ffffffffffffffffffffffffffffffffffffffff16815260200190815260200160002060009054906101000a900460ff16905092915050565b610bea610e9e565b73ffffffffffffffffffffffffffffffffffffffff168573ffffffffffffffffffffffffffffffffffffffff161480610c305750610c2f85610c2a610e9e565b610b4e565b5b610c6f576040517f08c379a0000000000000000000000000000000000000000000000000000000008152600401610c6690612508565b60405180910390fd5b610c7c8585858585611335565b5050505050565b60007f01ffc9a7000000000000000000000000000000000000000000000000000000007bffffffffffffffffffffffffffffffffffffffffffffffffffffffff1916827bffffffffffffffffffffffffffffffffffffffffffffffffffffffff1916149050919050565b600073ffffffffffffffffffffffffffffffffffffffff168473ffffffffffffffffffffffffffffffffffffffff161415610d5d576040517f08c379a0000000000000000000000000000000000000000000000000000000008152600401610d549061270d565b60405180910390fd5b6000610d67610e9e565b90506000610d74856115d1565b90506000610d81856115d1565b9050610d928360008985858961164b565b8460008088815260200190815260200160002060008973ffffffffffffffffffffffffffffffffffffffff1673ffffffffffffffffffffffffffffffffffffffff1681526020019081526020016000206000828254610df1919061272d565b925050819055508673ffffffffffffffffffffffffffffffffffffffff16600073ffffffffffffffffffffffffffffffffffffffff168473ffffffffffffffffffffffffffffffffffffffff167fc3d58168c5ae7397731d063d5bbf3d657854427343f4c083240f7aacaa2d0f628989604051610e6f929190612783565b60405180910390a4610e8683600089858589611653565b610e958360008989898961165b565b50505050505050565b600033905090565b8151835114610eea576040517f08c379a0000000000000000000000000000000000000000000000000000000008152600401610ee19061281e565b60405180910390fd5b600073ffffffffffffffffffffffffffffffffffffffff168473ffffffffffffffffffffffffffffffffffffffff161415610f5a576040517f08c379a0000000000000000000000000000000000000000000000000000000008152600401610f51906128b0565b60405180910390fd5b6000610f64610e9e565b9050610f7481878787878761164b565b60005b8451811015611125576000858281518110610f9557610f9461266c565b5b602002602001015190506000858381518110610fb457610fb361266c565b5b60200260200101519050600080600084815260200190815260200160002060008b73ffffffffffffffffffffffffffffffffffffffff1673ffffffffffffffffffffffffffffffffffffffff16815260200190815260200160002054905081811015611055576040517f08c379a000000000000000000000000000000000000000000000000000000000815260040161104c90612942565b60405180910390fd5b81810360008085815260200190815260200160002060008c73ffffffffffffffffffffffffffffffffffffffff1673ffffffffffffffffffffffffffffffffffffffff168152602001908152602001600020819055508160008085815260200190815260200160002060008b73ffffffffffffffffffffffffffffffffffffffff1673ffffffffffffffffffffffffffffffffffffffff168152602001908152602001600020600082825461110a919061272d565b925050819055505050508061111e9061244d565b9050610f77565b508473ffffffffffffffffffffffffffffffffffffffff168673ffffffffffffffffffffffffffffffffffffffff168273ffffffffffffffffffffffffffffffffffffffff167f4a39dc06d4c0dbc64b70af90fd698a233a518aa5d07e595d983b8c0526c8f7fb878760405161119c929190612962565b60405180910390a46111b2818787878787611653565b6111c0818787878787611842565b505050505050565b8173ffffffffffffffffffffffffffffffffffffffff168373ffffffffffffffffffffffffffffffffffffffff161415611237576040517f08c379a000000000000000000000000000000000000000000000000000000000815260040161122e90612a0b565b60405180910390fd5b80600160008573ffffffffffffffffffffffffffffffffffffffff1673ffffffffffffffffffffffffffffffffffffffff16815260200190815260200160002060008473ffffffffffffffffffffffffffffffffffffffff1673ffffffffffffffffffffffffffffffffffffffff16815260200190815260200160002060006101000a81548160ff0219169083151502179055508173ffffffffffffffffffffffffffffffffffffffff168373ffffffffffffffffffffffffffffffffffffffff167f17307eab39ab6107e8899845ad3d59bd9653f200f220920489ca2b5937696c31836040516113289190611bfe565b60405180910390a3505050565b600073ffffffffffffffffffffffffffffffffffffffff168473ffffffffffffffffffffffffffffffffffffffff1614156113a5576040517f08c379a000000000000000000000000000000000000000000000000000000000815260040161139c906128b0565b60405180910390fd5b60006113af610e9e565b905060006113bc856115d1565b905060006113c9856115d1565b90506113d983898985858961164b565b600080600088815260200190815260200160002060008a73ffffffffffffffffffffffffffffffffffffffff1673ffffffffffffffffffffffffffffffffffffffff16815260200190815260200160002054905085811015611470576040517f08c379a000000000000000000000000000000000000000000000000000000000815260040161146790612942565b60405180910390fd5b85810360008089815260200190815260200160002060008b73ffffffffffffffffffffffffffffffffffffffff1673ffffffffffffffffffffffffffffffffffffffff168152602001908152602001600020819055508560008089815260200190815260200160002060008a73ffffffffffffffffffffffffffffffffffffffff1673ffffffffffffffffffffffffffffffffffffffff1681526020019081526020016000206000828254611525919061272d565b925050819055508773ffffffffffffffffffffffffffffffffffffffff168973ffffffffffffffffffffffffffffffffffffffff168573ffffffffffffffffffffffffffffffffffffffff167fc3d58168c5ae7397731d063d5bbf3d657854427343f4c083240f7aacaa2d0f628a8a6040516115a2929190612783565b60405180910390a46115b8848a8a86868a611653565b6115c6848a8a8a8a8a61165b565b505050505050505050565b60606000600167ffffffffffffffff8111156115f0576115ef611d06565b5b60405190808252806020026020018201604052801561161e5781602001602082028036833780820191505090505b50905082816000815181106116365761163561266c565b5b60200260200101818152505080915050919050565b505050505050565b505050505050565b61167a8473ffffffffffffffffffffffffffffffffffffffff16611a29565b1561183a578373ffffffffffffffffffffffffffffffffffffffff1663f23a6e6187878686866040518663ffffffff1660e01b81526004016116c0959493929190612a8f565b602060405180830381600087803b1580156116da57600080fd5b505af192505050801561170b57506040513d601f19601f820116820180604052508101906117089190612afe565b60015b6117b157611717612b38565b806308c379a01415611774575061172c612b5a565b806117375750611776565b806040517f08c379a000000000000000000000000000000000000000000000000000000000815260040161176b9190611cdf565b60405180910390fd5b505b6040517f08c379a00000000000000000000000000000000000000000000000000000000081526004016117a890612c62565b60405180910390fd5b63f23a6e6160e01b7bffffffffffffffffffffffffffffffffffffffffffffffffffffffff1916817bffffffffffffffffffffffffffffffffffffffffffffffffffffffff191614611838576040517f08c379a000000000000000000000000000000000000000000000000000000000815260040161182f90612cf4565b60405180910390fd5b505b505050505050565b6118618473ffffffffffffffffffffffffffffffffffffffff16611a29565b15611a21578373ffffffffffffffffffffffffffffffffffffffff1663bc197c8187878686866040518663ffffffff1660e01b81526004016118a7959493929190612d14565b602060405180830381600087803b1580156118c157600080fd5b505af19250505080156118f257506040513d601f19601f820116820180604052508101906118ef9190612afe565b60015b611998576118fe612b38565b806308c379a0141561195b5750611913612b5a565b8061191e575061195d565b806040517f08c379a00000000000000000000000000000000000000000000000000000000081526004016119529190611cdf565b60405180910390fd5b505b6040517f08c379a000000000000000000000000000000000000000000000000000000000815260040161198f90612c62565b60405180910390fd5b63bc197c8160e01b7bffffffffffffffffffffffffffffffffffffffffffffffffffffffff1916817bffffffffffffffffffffffffffffffffffffffffffffffffffffffff191614611a1f576040517f08c379a0000000000000000000000000000000000000000000000000000000008152600401611a1690612cf4565b60405180910390fd5b505b505050505050565b6000808273ffffffffffffffffffffffffffffffffffffffff163b119050919050565b6000604051905090565b600080fd5b600080fd5b600073ffffffffffffffffffffffffffffffffffffffff82169050919050565b6000611a8b82611a60565b9050919050565b611a9b81611a80565b8114611aa657600080fd5b50565b600081359050611ab881611a92565b92915050565b6000819050919050565b611ad181611abe565b8114611adc57600080fd5b50565b600081359050611aee81611ac8565b92915050565b60008060408385031215611b0b57611b0a611a56565b5b6000611b1985828601611aa9565b9250506020611b2a85828601611adf565b9150509250929050565b611b3d81611abe565b82525050565b6000602082019050611b586000830184611b34565b92915050565b60007fffffffff0000000000000000000000000000000000000000000000000000000082169050919050565b611b9381611b5e565b8114611b9e57600080fd5b50565b600081359050611bb081611b8a565b92915050565b600060208284031215611bcc57611bcb611a56565b5b6000611bda84828501611ba1565b91505092915050565b60008115159050919050565b611bf881611be3565b82525050565b6000602082019050611c136000830184611bef565b92915050565b600060208284031215611c2f57611c2e611a56565b5b6000611c3d84828501611adf565b91505092915050565b600081519050919050565b600082825260208201905092915050565b60005b83811015611c80578082015181840152602081019050611c65565b83811115611c8f576000848401525b50505050565b6000601f19601f8301169050919050565b6000611cb182611c46565b611cbb8185611c51565b9350611ccb818560208601611c62565b611cd481611c95565b840191505092915050565b60006020820190508181036000830152611cf98184611ca6565b905092915050565b600080fd5b7f4e487b7100000000000000000000000000000000000000000000000000000000600052604160045260246000fd5b611d3e82611c95565b810181811067ffffffffffffffff82111715611d5d57611d5c611d06565b5b80604052505050565b6000611d70611a4c565b9050611d7c8282611d35565b919050565b600067ffffffffffffffff821115611d9c57611d9b611d06565b5b602082029050602081019050919050565b600080fd5b6000611dc5611dc084611d81565b611d66565b90508083825260208201905060208402830185811115611de857611de7611dad565b5b835b81811015611e115780611dfd8882611adf565b845260208401935050602081019050611dea565b5050509392505050565b600082601f830112611e3057611e2f611d01565b5b8135611e40848260208601611db2565b91505092915050565b600080fd5b600067ffffffffffffffff821115611e6957611e68611d06565b5b611e7282611c95565b9050602081019050919050565b82818337600083830152505050565b6000611ea1611e9c84611e4e565b611d66565b905082815260208101848484011115611ebd57611ebc611e49565b5b611ec8848285611e7f565b509392505050565b600082601f830112611ee557611ee4611d01565b5b8135611ef5848260208601611e8e565b91505092915050565b600080600080600060a08688031215611f1a57611f19611a56565b5b6000611f2888828901611aa9565b9550506020611f3988828901611aa9565b945050604086013567ffffffffffffffff811115611f5a57611f59611a5b565b5b611f6688828901611e1b565b935050606086013567ffffffffffffffff811115611f8757611f86611a5b565b5b611f9388828901611e1b565b925050608086013567ffffffffffffffff811115611fb457611fb3611a5b565b5b611fc088828901611ed0565b9150509295509295909350565b600067ffffffffffffffff821115611fe857611fe7611d06565b5b602082029050602081019050919050565b600061200c61200784611fcd565b611d66565b9050808382526020820190506020840283018581111561202f5761202e611dad565b5b835b8181101561205857806120448882611aa9565b845260208401935050602081019050612031565b5050509392505050565b600082601f83011261207757612076611d01565b5b8135612087848260208601611ff9565b91505092915050565b600080604083850312156120a7576120a6611a56565b5b600083013567ffffffffffffffff8111156120c5576120c4611a5b565b5b6120d185828601612062565b925050602083013567ffffffffffffffff8111156120f2576120f1611a5b565b5b6120fe85828601611e1b565b9150509250929050565b600081519050919050565b600082825260208201905092915050565b6000819050602082019050919050565b61213d81611abe565b82525050565b600061214f8383612134565b60208301905092915050565b6000602082019050919050565b600061217382612108565b61217d8185612113565b935061218883612124565b8060005b838110156121b95781516121a08882612143565b97506121ab8361215b565b92505060018101905061218c565b5085935050505092915050565b600060208201905081810360008301526121e08184612168565b905092915050565b6121f181611be3565b81146121fc57600080fd5b50565b60008135905061220e816121e8565b92915050565b6000806040838503121561222b5761222a611a56565b5b600061223985828601611aa9565b925050602061224a858286016121ff565b9150509250929050565b6000806040838503121561226b5761226a611a56565b5b600061227985828601611aa9565b925050602061228a85828601611aa9565b9150509250929050565b600080600080600060a086880312156122b0576122af611a56565b5b60006122be88828901611aa9565b95505060206122cf88828901611aa9565b94505060406122e088828901611adf565b93505060606122f188828901611adf565b925050608086013567ffffffffffffffff81111561231257612311611a5b565b5b61231e88828901611ed0565b9150509295509295909350565b7f455243313135353a2061646472657373207a65726f206973206e6f742061207660008201527f616c6964206f776e657200000000000000000000000000000000000000000000602082015250565b6000612387602a83611c51565b91506123928261232b565b604082019050919050565b600060208201905081810360008301526123b68161237a565b9050919050565b7f4e487b7100000000000000000000000000000000000000000000000000000000600052602260045260246000fd5b6000600282049050600182168061240457607f821691505b60208210811415612418576124176123bd565b5b50919050565b7f4e487b7100000000000000000000000000000000000000000000000000000000600052601160045260246000fd5b600061245882611abe565b91507fffffffffffffffffffffffffffffffffffffffffffffffffffffffffffffffff82141561248b5761248a61241e565b5b600182019050919050565b7f455243313135353a2063616c6c6572206973206e6f7420746f6b656e206f776e60008201527f6572206e6f7220617070726f7665640000000000000000000000000000000000602082015250565b60006124f2602f83611c51565b91506124fd82612496565b604082019050919050565b60006020820190508181036000830152612521816124e5565b9050919050565b600081905092915050565b50565b6000612543600083612528565b915061254e82612533565b600082019050919050565b600061256482612536565b9150819050919050565b7f4661696c656420746f2073656e64206574686572000000000000000000000000600082015250565b60006125a4601483611c51565b91506125af8261256e565b602082019050919050565b600060208201905081810360008301526125d381612597565b9050919050565b7f455243313135353a206163636f756e747320616e6420696473206c656e67746860008201527f206d69736d617463680000000000000000000000000000000000000000000000602082015250565b6000612636602983611c51565b9150612641826125da565b604082019050919050565b6000602082019050818103600083015261266581612629565b9050919050565b7f4e487b7100000000000000000000000000000000000000000000000000000000600052603260045260246000fd5b7f455243313135353a206d696e7420746f20746865207a65726f2061646472657360008201527f7300000000000000000000000000000000000000000000000000000000000000602082015250565b60006126f7602183611c51565b91506127028261269b565b604082019050919050565b60006020820190508181036000830152612726816126ea565b9050919050565b600061273882611abe565b915061274383611abe565b9250827fffffffffffffffffffffffffffffffffffffffffffffffffffffffffffffffff038211156127785761277761241e565b5b828201905092915050565b60006040820190506127986000830185611b34565b6127a56020830184611b34565b9392505050565b7f455243313135353a2069647320616e6420616d6f756e7473206c656e6774682060008201527f6d69736d61746368000000000000000000000000000000000000000000000000602082015250565b6000612808602883611c51565b9150612813826127ac565b604082019050919050565b60006020820190508181036000830152612837816127fb565b9050919050565b7f455243313135353a207472616e7366657220746f20746865207a65726f20616460008201527f6472657373000000000000000000000000000000000000000000000000000000602082015250565b600061289a602583611c51565b91506128a58261283e565b604082019050919050565b600060208201905081810360008301526128c98161288d565b9050919050565b7f455243313135353a20696e73756666696369656e742062616c616e636520666f60008201527f72207472616e7366657200000000000000000000000000000000000000000000602082015250565b600061292c602a83611c51565b9150612937826128d0565b604082019050919050565b6000602082019050818103600083015261295b8161291f565b9050919050565b6000604082019050818103600083015261297c8185612168565b905081810360208301526129908184612168565b90509392505050565b7f455243313135353a2073657474696e6720617070726f76616c2073746174757360008201527f20666f722073656c660000000000000000000000000000000000000000000000602082015250565b60006129f5602983611c51565b9150612a0082612999565b604082019050919050565b60006020820190508181036000830152612a24816129e8565b9050919050565b612a3481611a80565b82525050565b600081519050919050565b600082825260208201905092915050565b6000612a6182612a3a565b612a6b8185612a45565b9350612a7b818560208601611c62565b612a8481611c95565b840191505092915050565b600060a082019050612aa46000830188612a2b565b612ab16020830187612a2b565b612abe6040830186611b34565b612acb6060830185611b34565b8181036080830152612add8184612a56565b90509695505050505050565b600081519050612af881611b8a565b92915050565b600060208284031215612b1457612b13611a56565b5b6000612b2284828501612ae9565b91505092915050565b60008160e01c9050919050565b600060033d1115612b575760046000803e612b54600051612b2b565b90505b90565b600060443d1015612b6a57612bed565b612b72611a4c565b60043d036004823e80513d602482011167ffffffffffffffff82111715612b9a575050612bed565b808201805167ffffffffffffffff811115612bb85750505050612bed565b80602083010160043d038501811115612bd5575050505050612bed565b612be482602001850186611d35565b82955050505050505b90565b7f455243313135353a207472616e7366657220746f206e6f6e204552433131353560008201527f526563656976657220696d706c656d656e746572000000000000000000000000602082015250565b6000612c4c603483611c51565b9150612c5782612bf0565b604082019050919050565b60006020820190508181036000830152612c7b81612c3f565b9050919050565b7f455243313135353a204552433131353552656365697665722072656a6563746560008201527f6420746f6b656e73000000000000000000000000000000000000000000000000602082015250565b6000612cde602883611c51565b9150612ce982612c82565b604082019050919050565b60006020820190508181036000830152612d0d81612cd1565b9050919050565b600060a082019050612d296000830188612a2b565b612d366020830187612a2b565b8181036040830152612d488186612168565b90508181036060830152612d5c8185612168565b90508181036080830152612d708184612a56565b9050969550505050505056fe697066733a2f2f516d5947423131523432656734394d677473395448506d597175347143536172685a4b6a446972416e596e4d53382f6d657461646174612e6a736f6ea26469706673582212205abf9ee8e125f8b23112706ed43fd60a8d8b3998b8bcfb60a8a2f68a714ff51364736f6c63430008080033697066733a2f2f516d5947423131523432656734394d677473395448506d597175347143536172685a4b6a446972416e596e4d53382f6d657461646174612e6a736f6e",
  "devdoc": {
    "kind": "dev",
    "methods": {
      "balanceOf(address,uint256)": {
        "details": "See {IERC1155-balanceOf}. Requirements: - `account` cannot be the zero address."
      },
      "balanceOfBatch(address[],uint256[])": {
        "details": "See {IERC1155-balanceOfBatch}. Requirements: - `accounts` and `ids` must have the same length."
      },
      "isApprovedForAll(address,address)": {
        "details": "See {IERC1155-isApprovedForAll}."
      },
      "safeBatchTransferFrom(address,address,uint256[],uint256[],bytes)": {
        "details": "See {IERC1155-safeBatchTransferFrom}."
      },
      "safeTransferFrom(address,address,uint256,uint256,bytes)": {
        "details": "See {IERC1155-safeTransferFrom}."
      },
      "setApprovalForAll(address,bool)": {
        "details": "See {IERC1155-setApprovalForAll}."
      },
      "supportsInterface(bytes4)": {
        "details": "See {IERC165-supportsInterface}."
      },
      "uri(uint256)": {
        "details": "See {IERC1155MetadataURI-uri}. This implementation returns the same URI for *all* token types. It relies on the token type ID substitution mechanism https://eips.ethereum.org/EIPS/eip-1155#metadata[defined in the EIP]. Clients calling this function must replace the `\\{id\\}` substring with the actual token type ID."
      }
    },
    "version": 1
  },
  "userdoc": {
    "kind": "user",
    "methods": {},
    "version": 1
  },
  "storageLayout": {
    "storage": [
      {
        "astId": 25,
        "contract": "contracts/Meta.sol:meta",
        "label": "_balances",
        "offset": 0,
        "slot": "0",
        "type": "t_mapping(t_uint256,t_mapping(t_address,t_uint256))"
      },
      {
        "astId": 31,
        "contract": "contracts/Meta.sol:meta",
        "label": "_operatorApprovals",
        "offset": 0,
        "slot": "1",
        "type": "t_mapping(t_address,t_mapping(t_address,t_bool))"
      },
      {
        "astId": 33,
        "contract": "contracts/Meta.sol:meta",
        "label": "_uri",
        "offset": 0,
        "slot": "2",
        "type": "t_string_storage"
      },
      {
        "astId": 1780,
        "contract": "contracts/Meta.sol:meta",
        "label": "tokenIds",
        "offset": 0,
        "slot": "3",
        "type": "t_uint256"
      }
    ],
    "types": {
      "t_address": {
        "encoding": "inplace",
        "label": "address",
        "numberOfBytes": "20"
      },
      "t_bool": {
        "encoding": "inplace",
        "label": "bool",
        "numberOfBytes": "1"
      },
      "t_mapping(t_address,t_bool)": {
        "encoding": "mapping",
        "key": "t_address",
        "label": "mapping(address => bool)",
        "numberOfBytes": "32",
        "value": "t_bool"
      },
      "t_mapping(t_address,t_mapping(t_address,t_bool))": {
        "encoding": "mapping",
        "key": "t_address",
        "label": "mapping(address => mapping(address => bool))",
        "numberOfBytes": "32",
        "value": "t_mapping(t_address,t_bool)"
      },
      "t_mapping(t_address,t_uint256)": {
        "encoding": "mapping",
        "key": "t_address",
        "label": "mapping(address => uint256)",
        "numberOfBytes": "32",
        "value": "t_uint256"
      },
      "t_mapping(t_uint256,t_mapping(t_address,t_uint256))": {
        "encoding": "mapping",
        "key": "t_uint256",
        "label": "mapping(uint256 => mapping(address => uint256))",
        "numberOfBytes": "32",
        "value": "t_mapping(t_address,t_uint256)"
      },
      "t_string_storage": {
        "encoding": "bytes",
        "label": "string",
        "numberOfBytes": "32"
      },
      "t_uint256": {
        "encoding": "inplace",
        "label": "uint256",
        "numberOfBytes": "32"
      }
    }
  }
}