{
  "_format": "hh-sol-artifact-1",
  "contractName": "meta",
  "sourceName": "contracts/Meta.sol",
  "abi": [
    {
      "inputs": [],
      "stateMutability": "nonpayable",
      "type": "constructor"
    },
    {
      "inputs": [],
      "name": "contract_Owner",
      "type": "error"
    },
    {
      "anonymous": false,
      "inputs": [
        {
          "indexed": true,
          "internalType": "address",
          "name": "account",
          "type": "address"
        },
        {
          "indexed": true,
          "internalType": "address",
          "name": "operator",
          "type": "address"
        },
        {
          "indexed": false,
          "internalType": "bool",
          "name": "approved",
          "type": "bool"
        }
      ],
      "name": "ApprovalForAll",
      "type": "event"
    },
    {
      "anonymous": false,
      "inputs": [
        {
          "indexed": true,
          "internalType": "address",
          "name": "operator",
          "type": "address"
        },
        {
          "indexed": true,
          "internalType": "address",
          "name": "from",
          "type": "address"
        },
        {
          "indexed": true,
          "internalType": "address",
          "name": "to",
          "type": "address"
        },
        {
          "indexed": false,
          "internalType": "uint256[]",
          "name": "ids",
          "type": "uint256[]"
        },
        {
          "indexed": false,
          "internalType": "uint256[]",
          "name": "values",
          "type": "uint256[]"
        }
      ],
      "name": "TransferBatch",
      "type": "event"
    },
    {
      "anonymous": false,
      "inputs": [
        {
          "indexed": true,
          "internalType": "address",
          "name": "operator",
          "type": "address"
        },
        {
          "indexed": true,
          "internalType": "address",
          "name": "from",
          "type": "address"
        },
        {
          "indexed": true,
          "internalType": "address",
          "name": "to",
          "type": "address"
        },
        {
          "indexed": false,
          "internalType": "uint256",
          "name": "id",
          "type": "uint256"
        },
        {
          "indexed": false,
          "internalType": "uint256",
          "name": "value",
          "type": "uint256"
        }
      ],
      "name": "TransferSingle",
      "type": "event"
    },
    {
      "anonymous": false,
      "inputs": [
        {
          "indexed": false,
          "internalType": "string",
          "name": "value",
          "type": "string"
        },
        {
          "indexed": true,
          "internalType": "uint256",
          "name": "id",
          "type": "uint256"
        }
      ],
      "name": "URI",
      "type": "event"
    },
    {
      "stateMutability": "payable",
      "type": "fallback"
    },
    {
      "inputs": [],
      "name": "_baseURI",
      "outputs": [
        {
          "internalType": "string",
          "name": "",
          "type": "string"
        }
      ],
      "stateMutability": "pure",
      "type": "function"
    },
    {
      "inputs": [
        {
          "internalType": "address",
          "name": "account",
          "type": "address"
        },
        {
          "internalType": "uint256",
          "name": "id",
          "type": "uint256"
        }
      ],
      "name": "balanceOf",
      "outputs": [
        {
          "internalType": "uint256",
          "name": "",
          "type": "uint256"
        }
      ],
      "stateMutability": "view",
      "type": "function"
    },
    {
      "inputs": [
        {
          "internalType": "address[]",
          "name": "accounts",
          "type": "address[]"
        },
        {
          "internalType": "uint256[]",
          "name": "ids",
          "type": "uint256[]"
        }
      ],
      "name": "balanceOfBatch",
      "outputs": [
        {
          "internalType": "uint256[]",
          "name": "",
          "type": "uint256[]"
        }
      ],
      "stateMutability": "view",
      "type": "function"
    },
    {
      "inputs": [],
      "name": "getBalance",
      "outputs": [
        {
          "internalType": "uint256",
          "name": "",
          "type": "uint256"
        }
      ],
      "stateMutability": "view",
      "type": "function"
    },
    {
      "inputs": [],
      "name": "getBalanceOfSender",
      "outputs": [
        {
          "internalType": "uint256",
          "name": "",
          "type": "uint256"
        }
      ],
      "stateMutability": "view",
      "type": "function"
    },
    {
      "inputs": [
        {
          "internalType": "address",
          "name": "_sender",
          "type": "address"
        }
      ],
      "name": "getBalanceOfTokens",
      "outputs": [
        {
          "internalType": "uint256",
          "name": "",
          "type": "uint256"
        }
      ],
      "stateMutability": "view",
      "type": "function"
    },
    {
      "inputs": [],
      "name": "getTokenID",
      "outputs": [
        {
          "internalType": "uint256",
          "name": "",
          "type": "uint256"
        }
      ],
      "stateMutability": "view",
      "type": "function"
    },
    {
      "inputs": [
        {
          "internalType": "address",
          "name": "account",
          "type": "address"
        },
        {
          "internalType": "address",
          "name": "operator",
          "type": "address"
        }
      ],
      "name": "isApprovedForAll",
      "outputs": [
        {
          "internalType": "bool",
          "name": "",
          "type": "bool"
        }
      ],
      "stateMutability": "view",
      "type": "function"
    },
    {
      "inputs": [],
      "name": "maxTokenIDS",
      "outputs": [
        {
          "internalType": "uint256",
          "name": "",
          "type": "uint256"
        }
      ],
      "stateMutability": "pure",
      "type": "function"
    },
    {
      "inputs": [],
      "name": "metaOrcs",
      "outputs": [
        {
          "internalType": "uint256",
          "name": "",
          "type": "uint256"
        }
      ],
      "stateMutability": "view",
      "type": "function"
    },
    {
      "inputs": [],
      "name": "mint",
      "outputs": [],
      "stateMutability": "payable",
      "type": "function"
    },
    {
      "inputs": [
        {
          "internalType": "address",
          "name": "from",
          "type": "address"
        },
        {
          "internalType": "address",
          "name": "to",
          "type": "address"
        },
        {
          "internalType": "uint256[]",
          "name": "ids",
          "type": "uint256[]"
        },
        {
          "internalType": "uint256[]",
          "name": "amounts",
          "type": "uint256[]"
        },
        {
          "internalType": "bytes",
          "name": "data",
          "type": "bytes"
        }
      ],
      "name": "safeBatchTransferFrom",
      "outputs": [],
      "stateMutability": "nonpayable",
      "type": "function"
    },
    {
      "inputs": [
        {
          "internalType": "address",
          "name": "from",
          "type": "address"
        },
        {
          "internalType": "address",
          "name": "to",
          "type": "address"
        },
        {
          "internalType": "uint256",
          "name": "id",
          "type": "uint256"
        },
        {
          "internalType": "uint256",
          "name": "amount",
          "type": "uint256"
        },
        {
          "internalType": "bytes",
          "name": "data",
          "type": "bytes"
        }
      ],
      "name": "safeTransferFrom",
      "outputs": [],
      "stateMutability": "nonpayable",
      "type": "function"
    },
    {
      "inputs": [
        {
          "internalType": "address",
          "name": "operator",
          "type": "address"
        },
        {
          "internalType": "bool",
          "name": "approved",
          "type": "bool"
        }
      ],
      "name": "setApprovalForAll",
      "outputs": [],
      "stateMutability": "nonpayable",
      "type": "function"
    },
    {
      "inputs": [
        {
          "internalType": "bytes4",
          "name": "interfaceId",
          "type": "bytes4"
        }
      ],
      "name": "supportsInterface",
      "outputs": [
        {
          "internalType": "bool",
          "name": "",
          "type": "bool"
        }
      ],
      "stateMutability": "view",
      "type": "function"
    },
    {
      "inputs": [],
      "name": "tokenIds",
      "outputs": [
        {
          "internalType": "uint256",
          "name": "",
          "type": "uint256"
        }
      ],
      "stateMutability": "view",
      "type": "function"
    },
    {
      "inputs": [
        {
          "internalType": "uint256",
          "name": "",
          "type": "uint256"
        }
      ],
      "name": "uri",
      "outputs": [
        {
          "internalType": "string",
          "name": "",
          "type": "string"
        }
      ],
      "stateMutability": "view",
      "type": "function"
    },
    {
      "inputs": [],
      "name": "withdraw",
      "outputs": [],
      "stateMutability": "nonpayable",
      "type": "function"
    },
    {
      "stateMutability": "payable",
      "type": "receive"
    }
  ],
  "bytecode": "0x60e0604052612710608090815250662386f26fc1000060a09081525060006003553480156200002d57600080fd5b50604051806080016040528060438152602001620031e76043913962000059816200009760201b60201c565b503373ffffffffffffffffffffffffffffffffffffffff1660c08173ffffffffffffffffffffffffffffffffffffffff1660601b81525050620001c8565b8060029080519060200190620000af929190620000b3565b5050565b828054620000c19062000192565b90600052602060002090601f016020900481019282620000e5576000855562000131565b82601f106200010057805160ff191683800117855562000131565b8280016001018555821562000131579182015b828111156200013057825182559160200191906001019062000113565b5b50905062000140919062000144565b5090565b5b808211156200015f57600081600090555060010162000145565b5090565b7f4e487b7100000000000000000000000000000000000000000000000000000000600052602260045260246000fd5b60006002820490506001821680620001ab57607f821691505b60208210811415620001c257620001c162000163565b5b50919050565b60805160a05160c05160601c612fde620002096000396000818161089f015261090f015260006107480152600081816106e30152610b680152612fde6000f3fe60806040526004361061010c5760003560e01c80636ba367a311610095578063be6d91e611610064578063be6d91e614610353578063cc65c31c1461037e578063e985e9c5146103a9578063f242432a146103e6578063fb627a9a1461040f57610113565b80636ba367a3146102a9578063714cff56146102d4578063743976a0146102ff578063a22cb4651461032a57610113565b80631249c58b116100dc5780631249c58b146101f75780632eb2c2d614610201578063321e0f7f1461022a5780633ccfd60b146102555780634e1273f41461026c57610113565b8062fdd58e1461011557806301ffc9a7146101525780630e89341c1461018f57806312065fe0146101cc57610113565b3661011357005b005b34801561012157600080fd5b5061013c60048036038101906101379190611b46565b61044c565b6040516101499190611b95565b60405180910390f35b34801561015e57600080fd5b5061017960048036038101906101749190611c08565b610515565b6040516101869190611c50565b60405180910390f35b34801561019b57600080fd5b506101b660048036038101906101b19190611c6b565b6105f7565b6040516101c39190611d31565b60405180910390f35b3480156101d857600080fd5b506101e161068b565b6040516101ee9190611b95565b60405180910390f35b6101ff610693565b005b34801561020d57600080fd5b5061022860048036038101906102239190611f50565b6107e0565b005b34801561023657600080fd5b5061023f610881565b60405161024c9190611b95565b60405180910390f35b34801561026157600080fd5b5061026a610886565b005b34801561027857600080fd5b50610293600480360381019061028e91906120e2565b6109e6565b6040516102a09190612218565b60405180910390f35b3480156102b557600080fd5b506102be610aff565b6040516102cb9190611b95565b60405180910390f35b3480156102e057600080fd5b506102e9610b09565b6040516102f69190611b95565b60405180910390f35b34801561030b57600080fd5b50610314610b0f565b6040516103219190611d31565b60405180910390f35b34801561033657600080fd5b50610351600480360381019061034c9190612266565b610b2f565b005b34801561035f57600080fd5b50610368610b45565b6040516103759190611b95565b60405180910390f35b34801561038a57600080fd5b50610393610b64565b6040516103a09190611b95565b60405180910390f35b3480156103b557600080fd5b506103d060048036038101906103cb91906122a6565b610b8c565b6040516103dd9190611c50565b60405180910390f35b3480156103f257600080fd5b5061040d600480360381019061040891906122e6565b610c20565b005b34801561041b57600080fd5b506104366004803603810190610431919061237d565b610cc1565b6040516104439190611b95565b60405180910390f35b60008073ffffffffffffffffffffffffffffffffffffffff168373ffffffffffffffffffffffffffffffffffffffff1614156104bd576040517f08c379a00000000000000000000000000000000000000000000000000000000081526004016104b49061241c565b60405180910390fd5b60008083815260200190815260200160002060008473ffffffffffffffffffffffffffffffffffffffff1673ffffffffffffffffffffffffffffffffffffffff16815260200190815260200160002054905092915050565b60007fd9b67a26000000000000000000000000000000000000000000000000000000007bffffffffffffffffffffffffffffffffffffffffffffffffffffffff1916827bffffffffffffffffffffffffffffffffffffffffffffffffffffffff191614806105e057507f0e89341c000000000000000000000000000000000000000000000000000000007bffffffffffffffffffffffffffffffffffffffffffffffffffffffff1916827bffffffffffffffffffffffffffffffffffffffffffffffffffffffff1916145b806105f057506105ef82610cd5565b5b9050919050565b6060600280546106069061246b565b80601f01602080910402602001604051908101604052809291908181526020018280546106329061246b565b801561067f5780601f106106545761010080835404028352916020019161067f565b820191906000526020600020905b81548152906001019060200180831161066257829003601f168201915b50505050509050919050565b600047905090565b60016106a033600061044c565b11156106e1576040517f08c379a00000000000000000000000000000000000000000000000000000000081526004016106d8906124e9565b60405180910390fd5b7f00000000000000000000000000000000000000000000000000000000000000006003541115610746576040517f08c379a000000000000000000000000000000000000000000000000000000000815260040161073d9061257b565b60405180910390fd5b7f00000000000000000000000000000000000000000000000000000000000000003410156107a9576040517f08c379a00000000000000000000000000000000000000000000000000000000081526004016107a0906125e7565b60405180910390fd5b6107c6336000600160405180602001604052806000815250610d3f565b600360008154809291906107d990612636565b9190505550565b6107e8610ef0565b73ffffffffffffffffffffffffffffffffffffffff168573ffffffffffffffffffffffffffffffffffffffff16148061082e575061082d85610828610ef0565b610b8c565b5b61086d576040517f08c379a0000000000000000000000000000000000000000000000000000000008152600401610864906126f1565b60405180910390fd5b61087a8585858585610ef8565b5050505050565b600081565b3373ffffffffffffffffffffffffffffffffffffffff167f000000000000000000000000000000000000000000000000000000000000000073ffffffffffffffffffffffffffffffffffffffff161461090b576040517fa0fa0dab00000000000000000000000000000000000000000000000000000000815260040160405180910390fd5b60007f00000000000000000000000000000000000000000000000000000000000000009050600047905060008273ffffffffffffffffffffffffffffffffffffffff168260405161095b90612742565b60006040518083038185875af1925050503d8060008114610998576040519150601f19603f3d011682016040523d82523d6000602084013e61099d565b606091505b50509050806109e1576040517f08c379a00000000000000000000000000000000000000000000000000000000081526004016109d8906127a3565b60405180910390fd5b505050565b60608151835114610a2c576040517f08c379a0000000000000000000000000000000000000000000000000000000008152600401610a2390612835565b60405180910390fd5b6000835167ffffffffffffffff811115610a4957610a48611d58565b5b604051908082528060200260200182016040528015610a775781602001602082028036833780820191505090505b50905060005b8451811015610af457610ac4858281518110610a9c57610a9b612855565b5b6020026020010151858381518110610ab757610ab6612855565b5b602002602001015161044c565b828281518110610ad757610ad6612855565b5b60200260200101818152505080610aed90612636565b9050610a7d565b508091505092915050565b6000600354905090565b60035481565b6060604051806080016040528060438152602001612f6660439139905090565b610b41610b3a610ef0565b838361121a565b5050565b60003373ffffffffffffffffffffffffffffffffffffffff1631905090565b60007f0000000000000000000000000000000000000000000000000000000000000000905090565b6000600160008473ffffffffffffffffffffffffffffffffffffffff1673ffffffffffffffffffffffffffffffffffffffff16815260200190815260200160002060008373ffffffffffffffffffffffffffffffffffffffff1673ffffffffffffffffffffffffffffffffffffffff16815260200190815260200160002060009054906101000a900460ff16905092915050565b610c28610ef0565b73ffffffffffffffffffffffffffffffffffffffff168573ffffffffffffffffffffffffffffffffffffffff161480610c6e5750610c6d85610c68610ef0565b610b8c565b5b610cad576040517f08c379a0000000000000000000000000000000000000000000000000000000008152600401610ca4906126f1565b60405180910390fd5b610cba8585858585611387565b5050505050565b6000610cce82600061044c565b9050919050565b60007f01ffc9a7000000000000000000000000000000000000000000000000000000007bffffffffffffffffffffffffffffffffffffffffffffffffffffffff1916827bffffffffffffffffffffffffffffffffffffffffffffffffffffffff1916149050919050565b600073ffffffffffffffffffffffffffffffffffffffff168473ffffffffffffffffffffffffffffffffffffffff161415610daf576040517f08c379a0000000000000000000000000000000000000000000000000000000008152600401610da6906128f6565b60405180910390fd5b6000610db9610ef0565b90506000610dc685611623565b90506000610dd385611623565b9050610de48360008985858961169d565b8460008088815260200190815260200160002060008973ffffffffffffffffffffffffffffffffffffffff1673ffffffffffffffffffffffffffffffffffffffff1681526020019081526020016000206000828254610e439190612916565b925050819055508673ffffffffffffffffffffffffffffffffffffffff16600073ffffffffffffffffffffffffffffffffffffffff168473ffffffffffffffffffffffffffffffffffffffff167fc3d58168c5ae7397731d063d5bbf3d657854427343f4c083240f7aacaa2d0f628989604051610ec192919061296c565b60405180910390a4610ed8836000898585896116a5565b610ee7836000898989896116ad565b50505050505050565b600033905090565b8151835114610f3c576040517f08c379a0000000000000000000000000000000000000000000000000000000008152600401610f3390612a07565b60405180910390fd5b600073ffffffffffffffffffffffffffffffffffffffff168473ffffffffffffffffffffffffffffffffffffffff161415610fac576040517f08c379a0000000000000000000000000000000000000000000000000000000008152600401610fa390612a99565b60405180910390fd5b6000610fb6610ef0565b9050610fc681878787878761169d565b60005b8451811015611177576000858281518110610fe757610fe6612855565b5b60200260200101519050600085838151811061100657611005612855565b5b60200260200101519050600080600084815260200190815260200160002060008b73ffffffffffffffffffffffffffffffffffffffff1673ffffffffffffffffffffffffffffffffffffffff168152602001908152602001600020549050818110156110a7576040517f08c379a000000000000000000000000000000000000000000000000000000000815260040161109e90612b2b565b60405180910390fd5b81810360008085815260200190815260200160002060008c73ffffffffffffffffffffffffffffffffffffffff1673ffffffffffffffffffffffffffffffffffffffff168152602001908152602001600020819055508160008085815260200190815260200160002060008b73ffffffffffffffffffffffffffffffffffffffff1673ffffffffffffffffffffffffffffffffffffffff168152602001908152602001600020600082825461115c9190612916565b925050819055505050508061117090612636565b9050610fc9565b508473ffffffffffffffffffffffffffffffffffffffff168673ffffffffffffffffffffffffffffffffffffffff168273ffffffffffffffffffffffffffffffffffffffff167f4a39dc06d4c0dbc64b70af90fd698a233a518aa5d07e595d983b8c0526c8f7fb87876040516111ee929190612b4b565b60405180910390a46112048187878787876116a5565b611212818787878787611894565b505050505050565b8173ffffffffffffffffffffffffffffffffffffffff168373ffffffffffffffffffffffffffffffffffffffff161415611289576040517f08c379a000000000000000000000000000000000000000000000000000000000815260040161128090612bf4565b60405180910390fd5b80600160008573ffffffffffffffffffffffffffffffffffffffff1673ffffffffffffffffffffffffffffffffffffffff16815260200190815260200160002060008473ffffffffffffffffffffffffffffffffffffffff1673ffffffffffffffffffffffffffffffffffffffff16815260200190815260200160002060006101000a81548160ff0219169083151502179055508173ffffffffffffffffffffffffffffffffffffffff168373ffffffffffffffffffffffffffffffffffffffff167f17307eab39ab6107e8899845ad3d59bd9653f200f220920489ca2b5937696c318360405161137a9190611c50565b60405180910390a3505050565b600073ffffffffffffffffffffffffffffffffffffffff168473ffffffffffffffffffffffffffffffffffffffff1614156113f7576040517f08c379a00000000000000000000000000000000000000000000000000000000081526004016113ee90612a99565b60405180910390fd5b6000611401610ef0565b9050600061140e85611623565b9050600061141b85611623565b905061142b83898985858961169d565b600080600088815260200190815260200160002060008a73ffffffffffffffffffffffffffffffffffffffff1673ffffffffffffffffffffffffffffffffffffffff168152602001908152602001600020549050858110156114c2576040517f08c379a00000000000000000000000000000000000000000000000000000000081526004016114b990612b2b565b60405180910390fd5b85810360008089815260200190815260200160002060008b73ffffffffffffffffffffffffffffffffffffffff1673ffffffffffffffffffffffffffffffffffffffff168152602001908152602001600020819055508560008089815260200190815260200160002060008a73ffffffffffffffffffffffffffffffffffffffff1673ffffffffffffffffffffffffffffffffffffffff16815260200190815260200160002060008282546115779190612916565b925050819055508773ffffffffffffffffffffffffffffffffffffffff168973ffffffffffffffffffffffffffffffffffffffff168573ffffffffffffffffffffffffffffffffffffffff167fc3d58168c5ae7397731d063d5bbf3d657854427343f4c083240f7aacaa2d0f628a8a6040516115f492919061296c565b60405180910390a461160a848a8a86868a6116a5565b611618848a8a8a8a8a6116ad565b505050505050505050565b60606000600167ffffffffffffffff81111561164257611641611d58565b5b6040519080825280602002602001820160405280156116705781602001602082028036833780820191505090505b509050828160008151811061168857611687612855565b5b60200260200101818152505080915050919050565b505050505050565b505050505050565b6116cc8473ffffffffffffffffffffffffffffffffffffffff16611a7b565b1561188c578373ffffffffffffffffffffffffffffffffffffffff1663f23a6e6187878686866040518663ffffffff1660e01b8152600401611712959493929190612c78565b602060405180830381600087803b15801561172c57600080fd5b505af192505050801561175d57506040513d601f19601f8201168201806040525081019061175a9190612ce7565b60015b61180357611769612d21565b806308c379a014156117c6575061177e612d43565b8061178957506117c8565b806040517f08c379a00000000000000000000000000000000000000000000000000000000081526004016117bd9190611d31565b60405180910390fd5b505b6040517f08c379a00000000000000000000000000000000000000000000000000000000081526004016117fa90612e4b565b60405180910390fd5b63f23a6e6160e01b7bffffffffffffffffffffffffffffffffffffffffffffffffffffffff1916817bffffffffffffffffffffffffffffffffffffffffffffffffffffffff19161461188a576040517f08c379a000000000000000000000000000000000000000000000000000000000815260040161188190612edd565b60405180910390fd5b505b505050505050565b6118b38473ffffffffffffffffffffffffffffffffffffffff16611a7b565b15611a73578373ffffffffffffffffffffffffffffffffffffffff1663bc197c8187878686866040518663ffffffff1660e01b81526004016118f9959493929190612efd565b602060405180830381600087803b15801561191357600080fd5b505af192505050801561194457506040513d601f19601f820116820180604052508101906119419190612ce7565b60015b6119ea57611950612d21565b806308c379a014156119ad5750611965612d43565b8061197057506119af565b806040517f08c379a00000000000000000000000000000000000000000000000000000000081526004016119a49190611d31565b60405180910390fd5b505b6040517f08c379a00000000000000000000000000000000000000000000000000000000081526004016119e190612e4b565b60405180910390fd5b63bc197c8160e01b7bffffffffffffffffffffffffffffffffffffffffffffffffffffffff1916817bffffffffffffffffffffffffffffffffffffffffffffffffffffffff191614611a71576040517f08c379a0000000000000000000000000000000000000000000000000000000008152600401611a6890612edd565b60405180910390fd5b505b505050505050565b6000808273ffffffffffffffffffffffffffffffffffffffff163b119050919050565b6000604051905090565b600080fd5b600080fd5b600073ffffffffffffffffffffffffffffffffffffffff82169050919050565b6000611add82611ab2565b9050919050565b611aed81611ad2565b8114611af857600080fd5b50565b600081359050611b0a81611ae4565b92915050565b6000819050919050565b611b2381611b10565b8114611b2e57600080fd5b50565b600081359050611b4081611b1a565b92915050565b60008060408385031215611b5d57611b5c611aa8565b5b6000611b6b85828601611afb565b9250506020611b7c85828601611b31565b9150509250929050565b611b8f81611b10565b82525050565b6000602082019050611baa6000830184611b86565b92915050565b60007fffffffff0000000000000000000000000000000000000000000000000000000082169050919050565b611be581611bb0565b8114611bf057600080fd5b50565b600081359050611c0281611bdc565b92915050565b600060208284031215611c1e57611c1d611aa8565b5b6000611c2c84828501611bf3565b91505092915050565b60008115159050919050565b611c4a81611c35565b82525050565b6000602082019050611c656000830184611c41565b92915050565b600060208284031215611c8157611c80611aa8565b5b6000611c8f84828501611b31565b91505092915050565b600081519050919050565b600082825260208201905092915050565b60005b83811015611cd2578082015181840152602081019050611cb7565b83811115611ce1576000848401525b50505050565b6000601f19601f8301169050919050565b6000611d0382611c98565b611d0d8185611ca3565b9350611d1d818560208601611cb4565b611d2681611ce7565b840191505092915050565b60006020820190508181036000830152611d4b8184611cf8565b905092915050565b600080fd5b7f4e487b7100000000000000000000000000000000000000000000000000000000600052604160045260246000fd5b611d9082611ce7565b810181811067ffffffffffffffff82111715611daf57611dae611d58565b5b80604052505050565b6000611dc2611a9e565b9050611dce8282611d87565b919050565b600067ffffffffffffffff821115611dee57611ded611d58565b5b602082029050602081019050919050565b600080fd5b6000611e17611e1284611dd3565b611db8565b90508083825260208201905060208402830185811115611e3a57611e39611dff565b5b835b81811015611e635780611e4f8882611b31565b845260208401935050602081019050611e3c565b5050509392505050565b600082601f830112611e8257611e81611d53565b5b8135611e92848260208601611e04565b91505092915050565b600080fd5b600067ffffffffffffffff821115611ebb57611eba611d58565b5b611ec482611ce7565b9050602081019050919050565b82818337600083830152505050565b6000611ef3611eee84611ea0565b611db8565b905082815260208101848484011115611f0f57611f0e611e9b565b5b611f1a848285611ed1565b509392505050565b600082601f830112611f3757611f36611d53565b5b8135611f47848260208601611ee0565b91505092915050565b600080600080600060a08688031215611f6c57611f6b611aa8565b5b6000611f7a88828901611afb565b9550506020611f8b88828901611afb565b945050604086013567ffffffffffffffff811115611fac57611fab611aad565b5b611fb888828901611e6d565b935050606086013567ffffffffffffffff811115611fd957611fd8611aad565b5b611fe588828901611e6d565b925050608086013567ffffffffffffffff81111561200657612005611aad565b5b61201288828901611f22565b9150509295509295909350565b600067ffffffffffffffff82111561203a57612039611d58565b5b602082029050602081019050919050565b600061205e6120598461201f565b611db8565b9050808382526020820190506020840283018581111561208157612080611dff565b5b835b818110156120aa57806120968882611afb565b845260208401935050602081019050612083565b5050509392505050565b600082601f8301126120c9576120c8611d53565b5b81356120d984826020860161204b565b91505092915050565b600080604083850312156120f9576120f8611aa8565b5b600083013567ffffffffffffffff81111561211757612116611aad565b5b612123858286016120b4565b925050602083013567ffffffffffffffff81111561214457612143611aad565b5b61215085828601611e6d565b9150509250929050565b600081519050919050565b600082825260208201905092915050565b6000819050602082019050919050565b61218f81611b10565b82525050565b60006121a18383612186565b60208301905092915050565b6000602082019050919050565b60006121c58261215a565b6121cf8185612165565b93506121da83612176565b8060005b8381101561220b5781516121f28882612195565b97506121fd836121ad565b9250506001810190506121de565b5085935050505092915050565b6000602082019050818103600083015261223281846121ba565b905092915050565b61224381611c35565b811461224e57600080fd5b50565b6000813590506122608161223a565b92915050565b6000806040838503121561227d5761227c611aa8565b5b600061228b85828601611afb565b925050602061229c85828601612251565b9150509250929050565b600080604083850312156122bd576122bc611aa8565b5b60006122cb85828601611afb565b92505060206122dc85828601611afb565b9150509250929050565b600080600080600060a0868803121561230257612301611aa8565b5b600061231088828901611afb565b955050602061232188828901611afb565b945050604061233288828901611b31565b935050606061234388828901611b31565b925050608086013567ffffffffffffffff81111561236457612363611aad565b5b61237088828901611f22565b9150509295509295909350565b60006020828403121561239357612392611aa8565b5b60006123a184828501611afb565b91505092915050565b7f455243313135353a2061646472657373207a65726f206973206e6f742061207660008201527f616c6964206f776e657200000000000000000000000000000000000000000000602082015250565b6000612406602a83611ca3565b9150612411826123aa565b604082019050919050565b60006020820190508181036000830152612435816123f9565b9050919050565b7f4e487b7100000000000000000000000000000000000000000000000000000000600052602260045260246000fd5b6000600282049050600182168061248357607f821691505b602082108114156124975761249661243c565b5b50919050565b7f596f752063616e2774206d696e74206e6f206d6f726500000000000000000000600082015250565b60006124d3601683611ca3565b91506124de8261249d565b602082019050919050565b60006020820190508181036000830152612502816124c6565b9050919050565b7f546865726520617265206e6f6e6520617661696c61626c6520666f72206d696e60008201527f7400000000000000000000000000000000000000000000000000000000000000602082015250565b6000612565602183611ca3565b915061257082612509565b604082019050919050565b6000602082019050818103600083015261259481612558565b9050919050565b7f53656e64206d6f7265206d6f6e6579206d616e00000000000000000000000000600082015250565b60006125d1601383611ca3565b91506125dc8261259b565b602082019050919050565b60006020820190508181036000830152612600816125c4565b9050919050565b7f4e487b7100000000000000000000000000000000000000000000000000000000600052601160045260246000fd5b600061264182611b10565b91507fffffffffffffffffffffffffffffffffffffffffffffffffffffffffffffffff82141561267457612673612607565b5b600182019050919050565b7f455243313135353a2063616c6c6572206973206e6f7420746f6b656e206f776e60008201527f6572206e6f7220617070726f7665640000000000000000000000000000000000602082015250565b60006126db602f83611ca3565b91506126e68261267f565b604082019050919050565b6000602082019050818103600083015261270a816126ce565b9050919050565b600081905092915050565b50565b600061272c600083612711565b91506127378261271c565b600082019050919050565b600061274d8261271f565b9150819050919050565b7f4661696c656420746f2073656e64206574686572000000000000000000000000600082015250565b600061278d601483611ca3565b915061279882612757565b602082019050919050565b600060208201905081810360008301526127bc81612780565b9050919050565b7f455243313135353a206163636f756e747320616e6420696473206c656e67746860008201527f206d69736d617463680000000000000000000000000000000000000000000000602082015250565b600061281f602983611ca3565b915061282a826127c3565b604082019050919050565b6000602082019050818103600083015261284e81612812565b9050919050565b7f4e487b7100000000000000000000000000000000000000000000000000000000600052603260045260246000fd5b7f455243313135353a206d696e7420746f20746865207a65726f2061646472657360008201527f7300000000000000000000000000000000000000000000000000000000000000602082015250565b60006128e0602183611ca3565b91506128eb82612884565b604082019050919050565b6000602082019050818103600083015261290f816128d3565b9050919050565b600061292182611b10565b915061292c83611b10565b9250827fffffffffffffffffffffffffffffffffffffffffffffffffffffffffffffffff0382111561296157612960612607565b5b828201905092915050565b60006040820190506129816000830185611b86565b61298e6020830184611b86565b9392505050565b7f455243313135353a2069647320616e6420616d6f756e7473206c656e6774682060008201527f6d69736d61746368000000000000000000000000000000000000000000000000602082015250565b60006129f1602883611ca3565b91506129fc82612995565b604082019050919050565b60006020820190508181036000830152612a20816129e4565b9050919050565b7f455243313135353a207472616e7366657220746f20746865207a65726f20616460008201527f6472657373000000000000000000000000000000000000000000000000000000602082015250565b6000612a83602583611ca3565b9150612a8e82612a27565b604082019050919050565b60006020820190508181036000830152612ab281612a76565b9050919050565b7f455243313135353a20696e73756666696369656e742062616c616e636520666f60008201527f72207472616e7366657200000000000000000000000000000000000000000000602082015250565b6000612b15602a83611ca3565b9150612b2082612ab9565b604082019050919050565b60006020820190508181036000830152612b4481612b08565b9050919050565b60006040820190508181036000830152612b6581856121ba565b90508181036020830152612b7981846121ba565b90509392505050565b7f455243313135353a2073657474696e6720617070726f76616c2073746174757360008201527f20666f722073656c660000000000000000000000000000000000000000000000602082015250565b6000612bde602983611ca3565b9150612be982612b82565b604082019050919050565b60006020820190508181036000830152612c0d81612bd1565b9050919050565b612c1d81611ad2565b82525050565b600081519050919050565b600082825260208201905092915050565b6000612c4a82612c23565b612c548185612c2e565b9350612c64818560208601611cb4565b612c6d81611ce7565b840191505092915050565b600060a082019050612c8d6000830188612c14565b612c9a6020830187612c14565b612ca76040830186611b86565b612cb46060830185611b86565b8181036080830152612cc68184612c3f565b90509695505050505050565b600081519050612ce181611bdc565b92915050565b600060208284031215612cfd57612cfc611aa8565b5b6000612d0b84828501612cd2565b91505092915050565b60008160e01c9050919050565b600060033d1115612d405760046000803e612d3d600051612d14565b90505b90565b600060443d1015612d5357612dd6565b612d5b611a9e565b60043d036004823e80513d602482011167ffffffffffffffff82111715612d83575050612dd6565b808201805167ffffffffffffffff811115612da15750505050612dd6565b80602083010160043d038501811115612dbe575050505050612dd6565b612dcd82602001850186611d87565b82955050505050505b90565b7f455243313135353a207472616e7366657220746f206e6f6e204552433131353560008201527f526563656976657220696d706c656d656e746572000000000000000000000000602082015250565b6000612e35603483611ca3565b9150612e4082612dd9565b604082019050919050565b60006020820190508181036000830152612e6481612e28565b9050919050565b7f455243313135353a204552433131353552656365697665722072656a6563746560008201527f6420746f6b656e73000000000000000000000000000000000000000000000000602082015250565b6000612ec7602883611ca3565b9150612ed282612e6b565b604082019050919050565b60006020820190508181036000830152612ef681612eba565b9050919050565b600060a082019050612f126000830188612c14565b612f1f6020830187612c14565b8181036040830152612f3181866121ba565b90508181036060830152612f4581856121ba565b90508181036080830152612f598184612c3f565b9050969550505050505056fe697066733a2f2f516d5947423131523432656734394d677473395448506d597175347143536172685a4b6a446972416e596e4d53382f6d657461646174612e6a736f6ea2646970667358221220ee4ae137e1f35a7e47fb218b5cf2e0aa5e62a76b9e345ec4e2fdb2c2d6e801b564736f6c63430008080033697066733a2f2f516d5947423131523432656734394d677473395448506d597175347143536172685a4b6a446972416e596e4d53382f6d657461646174612e6a736f6e",
  "linkReferences": {},
  "deployedLinkReferences": {}
}